:020000040800F2
:1000000090070020690200087102000873020008CE
:10001000750200087702000879020008000000005D
:100020000000000000000000000000007B0200084B
:100030007D020008000000007F020008410F000858
:10004000830200088302000883020008830200087C
:1000500083020008830200088302000825030008C9
:100060002D030008830200088302000883020008B1
:10007000830200088302000883020008830200084C
:10008000830200088302000883020008830200083C
:10009000830200088302000883020008830200082C
:1000A000830200088302000883020008650F00082D
:1000B000670F0008690F0008790F00088302000825
:1000C00083020008830200088302000883020008FC
:1000D00083020008830200080D1100088302000853
:1000E00083020008830200088302000883020008DC
:1000F00083020008830200088302000883020008CC
:1001000083020008830200088302000883020008BB
:100110008302000883020008830200087D0F0008A4
:10012000830200088302000883020008830200089B
:10013000830200088302000883020008830200088B
:10014000830200088302000883020008830200087B
:10015000830200088302000883020008830200086B
:10016000830200088302000883020008830200085B
:1001700083020008830200088302000800000000D8
:10018000830200088302000800F002F800F05CF827
:100190000AA090E8000C82448344AAF10107DA45E2
:1001A00001D100F051F8AFF2090EBAE80F0013F0D8
:1001B000010F18BFFB1A43F001031847201C000071
:1001C000401C00000A444FF0000C10F8013B13F0F3
:1001D000070408BF10F8014B1D1108BF10F8015BA0
:1001E000641E05D010F8016B641E01F8016BF9D193
:1001F00013F0080F1EBF10F8014BAD1C0C1B09D1EA
:100200006D1E58BF01F801CBFAD505E014F8016B5B
:1002100001F8016B6D1EF9D59142D6D370470000ED
:100220000023002400250026103A28BF78C1FBD8FF
:10023000520728BF30C148BF0B6070471FB501F09F
:10024000C8FD1FBD10B510BD00F037F81146FFF70F
:10025000F5FF01F0A9F900F055F803B4FFF7F2FF3C
:1002600003BC00F059F800000948804709480047DE
:10027000FEE7FEE7FEE7FEE7FEE7FEE7FEE7FEE756
:10028000FEE7FEE704480549054A064B70470000B3
:10029000510F0008890100089001002090070020FC
:1002A00090030020900300207047704770470000C3
:1002B000004870473001002070477546FFF7F8FF8F
:1002C000AE4605006946534620F00700854618B043
:1002D00020B5FFF7D7FFBDE820404FF000064FF0F4
:1002E00000074FF000084FF0000B21F00701AC466B
:1002F000ACE8C009ACE8C009ACE8C009ACE8C0098A
:100300008D46704710B50446AFF300802046BDE827
:100310001040FFF7A2BF000001491820ABBEFEE766
:100320002600020010B500F03FF910BD10B500F036
:1003300061F910BD044909684969012282401143ED
:10034000014A126851617047E00000202DE9F04138
:1003500080460C4615461E46069F2146404600F044
:1003600063FC97B91848006880680121A1400843E0
:1003700015490968886014480068C0680021A140D8
:10038000084311490968C86013E0012F11D10E48D4
:10039000006881680020A04001430B48006881602C
:1003A00009480068C1680120A04001430648006870
:1003B000C1602946204600F015F83146204600F07D
:1003C00005F8BDE8F0810000E0000020044A126852
:1003D000526801FA00F31A43014B1B685A607047D8
:1003E000E0000020044A1268126801FA00F31A4380
:1003F000014B1B681A607047E000002030B50368AD
:100400004D000224AC4023430360082906DA036A46
:100410008C0002FA04F42343036207E0436AA1F16B
:100420000804A40002FA04F42343436230BD2DE91A
:10043000F04705460E4617461C46DDE90889284662
:1004400000F016F83A463146284600F081F8224678
:100450003146284600F08CF842463146284600F0E6
:100460007FF84A463146284600F06AF8BDE8F08732
:1004700010B504462748844203D1002000F04EFA0C
:1004800046E02548844203D1012000F047FA3FE0CE
:100490002248844203D1022000F040FA38E020488C
:1004A000844203D1032000F039FA31E01D48844230
:1004B00003D1042000F032FA2AE01B48844203D121
:1004C000052000F02BFA23E01848844203D10620CF
:1004D00000F024FA1CE01648844203D1072000F003
:1004E0001DFA15E01348844203D1082000F016FAE3
:1004F0000EE01148844203D1092000F00FFA07E012
:100500000E48844203D10A2000F008FA00E010BD32
:1005100000BFFCE700000240000402400008024067
:10052000000C02400010024000140240001802407B
:10053000001C02400020024000240240002802402B
:1005400010B5C3684C0002FA04F42343C36010BD25
:1005500010B503684C0002FA04F42343036010BD95
:1005600010B583684C0002FA04F42343836010BD85
:1005700010B5436802FA01F42343436010BD10B57F
:10058000012A03D101238B40836104E001F11003B0
:1005900001249C40846110BD02480078C0F3001023
:1005A00070470000DE00002010B5012200210E4837
:1005B0000068FFF7E4FF00200C49086004E00B48E6
:1005C0000068401C094908600848006808498842DA
:1005D000F5D30022114604480068FFF7D0FF012040
:1005E000FFF7A8FE10BD0000E8000020F00000208A
:1005F00040420F0010B5012200210E480068FFF7AD
:10060000BEFF00200C49086004E00B480068401C55
:10061000094908600848006808498842F5D3002263
:10062000114604480068FFF7AAFF0220FFF782FE88
:1006300010BD0000EC000020F000002040420F0040
:1006400000200449096888606FF07F40014909680B
:1006500048607047D40000200020384908703848AE
:100660000078002868D000203549087033480078A9
:1006700020F00100401C3149087032480078401CCD
:1006800030490870084600780A2855DB2B48007866
:1006900020F00200801C29490870002029490870B8
:1006A00029480078401C2849087008460078052829
:1006B00042DB2248007820F00400001D1F4908702A
:1006C00000202149087021480078401C1F4908700B
:1006D0000846007802282FDB1848007820F0080030
:1006E000083016490870002018490870184800782A
:1006F000401C174908700846007805281CDB0F4885
:10070000007820F0100010300C49087000201049CB
:10071000087010480078401C0E49087008460078A0
:10072000022809DB0548007820F02000203003492A
:10073000087000200749087070470000DE000020A4
:10074000D8000020D9000020DA000020DB000020C3
:10075000DC000020DD000020002037490870374809
:100760000078002867D00846007820F00100401C7F
:10077000087000203149087031480078401C304929
:100780000870084600780A2855DB2B48007820F0CE
:100790000200801C28490870002029490870294857
:1007A0000078401C2749087008460078052842DB7D
:1007B0002148007820F00400001D1F490870002027
:1007C0002049087020480078401C1F4908700846DE
:1007D000007802282FDB1848007820F00800083045
:1007E0001549087000201849087018480078401C06
:1007F000164908700846007805281CDB0E4800786A
:1008000020F0100010300C49087000200F490870CB
:100810000F480078401C0E490870084600780228EE
:1008200009DB0548007820F02000203002490870DC
:100830000020074908707047FE000020F8000020E3
:10084000F9000020FA000020FB000020FC0000203E
:10085000FD00002030B5C31700EBD3635C110D4BD6
:100860001B68803353F824300246C41700EBD4646D
:100870006411A0EB44150124AC4023430146C41786
:1008800000EBD4646511034C2468803444F82530AF
:1008900030BD0000F400002070B505460E46144639
:1008A000284600F00DF83CB1284600F00FF831461C
:1008B000284600F02BF802E02846FFF7CBFF70BD7A
:1008C00010B504462046FFF7C5FF10BD30B5C3176D
:1008D00000EBD3635B110C4C246854F823300246C0
:1008E000C41700EBD4646411A0EB44150124AC40A0
:1008F00023430146C41700EBD4646411024D2D68F4
:1009000045F8243030BD0000F4000020024A12688F
:1009100002F5407211547047F400002000210C28A9
:1009200009DA134A1268116B012282401143104AFE
:10093000126811631AE02C280CDA0D4A1268116C47
:10094000A0F10C02012303FA02F21143084A1268D3
:1009500011640BE0064A1268516CA0F12C020123CD
:1009600003FA02F21143024A126851647047000010
:10097000C800002000BF12480068006840F0010075
:100980000F490968086000BF00BF0D480068007883
:10099000C0F340000028F8D0094800688068084982
:1009A00009688860064800688068054909688860A9
:1009B0000348006880680249096888607047000041
:1009C000C80000201CB504467248844243D1382038
:1009D000FFF7A4FF0020FFF7A1FF002000900346CF
:1009E0000122042101906C480068FFF720FD0020DF
:1009F000032103460222CDE9001005216648006864
:100A0000FFF715FD0020032103460222CDE9001067
:100A1000062161480068FFF70AFD00200321034614
:100A20000222CDE9001007215B480068FFF7FFFCB8
:100A30000522114658480068FFF7E0FC0522062110
:100A400055480068FFF7DAFC052207215248006884
:100A5000FFF7D4FC9CE05148844249D11A20FFF7AB
:100A60005DFF0120FFF75AFF00200090034602229D
:100A70000C2101904A480068FFF7D9FC00200321AF
:100A800003460222CDE900100D2145480068FFF71A
:100A9000CEFC0020032103460222CDE900100E21E6
:100AA0003F480068FFF7C3FC0020032103460222F1
:100AB000CDE900100F213A480068FFF7B8FC052285
:100AC0000C2137480068FFF799FC05220D213448B6
:100AD0000068FFF793FC05220E2131480068FFF7FC
:100AE0008DFC05220F212E480068FFF787FC4FE0A0
:100AF0002C4884424CD11B20FFF710FF0020FFF749
:100B00000DFF0220FFF70AFF002003210346012208
:100B1000CDE900100F2120480068FFF788FC002075
:100B2000032103460222CDE900100A211E48006875
:100B3000FFF77DFC0220032100230246CDE90010CF
:100B40000B2119480068FFF772FC002003210346BF
:100B50000222CDE900100C2113480068FFF767FC62
:100B600006220F210C480068FFF748FC06220A21E4
:100B70000D480068FFF742FC06220B210A48006876
:100B8000FFF73CFC06220C2107480068FFF736FC03
:100B90001CBD000000300140100100200038004062
:100BA00014010020003C0040180100202DE9F05FF6
:100BB00004460D4616461F46DDE90BABDDF82890CE
:100BC000DDF834802046FFF7FDFE206840EA85000E
:100BD0002060206840EACB202060206830432060FD
:100BE000206840EAC91020601DB1206840EAC700B3
:100BF0002060B8F1010F04D1206840F440702060FB
:100C000008E0B8F1000F04D1606840F004006060B3
:100C100000E000BF206840EA8A202060206840F0A1
:100C200040002060BDE8F09F70B505460C463A20B4
:100C3000FFF774FEE21704EB927293100D4A1268EC
:100C4000083252F823202146E31704EB93739B10DC
:100C5000A4EB83039B0005FA03F31A432046E31732
:100C600004EB93739E10034B1B68083343F8262054
:100C700070BD0000E400002010B503460C46F0EE05
:100C8000401AFFF7DDFC012B08D116480068006808
:100C900040F0040013490968086007E01148006843
:100CA000006820F004000F4909680860012C08D191
:100CB0000C480068006840F002000A4909680860B2
:100CC00007E008480068006820F00200054909684C
:100CD0000860B0EE610A00F021F9012000F008F987
:100CE00010BD0000D400002070B504460D46294612
:100CF000204600F005F8204600F08EF870BD000098
:100D00007CB505460C4625B1012D2BD0022D7CD19A
:100D100051E00120FFF702FE0020022103460122DC
:100D2000CDE9001006213A480068FFF780FB5CB966
:100D30000020022103460122CDE90010072134489A
:100D40000068FFF774FB0CE0012C0AD1002002219F
:100D500003460246CDE9001007212D480068FFF741
:100D600066FB53E00120FFF7D9FD00200221034676
:100D70000122CDE900100A2125480068FFF757FB42
:100D80005CB90020022103460122CDE900100B21AD
:100D90001F480068FFF74BFB0CE0012C0AD1002034
:100DA000022103460246CDE900100B2118480068D5
:100DB000FFF73DFB2AE00720FFF7B0FD00200221EE
:100DC00003460122CDE90010072112480068FFF711
:100DD0002EFB5CB90020022103460122CDE9001060
:100DE00008210C480068FFF722FB0CE0012C0AD117
:100DF0000020022103460246CDE9001008210548E3
:100E00000068FFF714FB01E0FFE700BF00BF7CBDF7
:100E1000280100202C01002010B5044624B1012C2B
:100E20000FD0022C27D119E00122062113480068B7
:100E3000FFF7A5FB0122072110480068FFF79FFB81
:100E40001AE001220A210D480068FFF798FB0122F1
:100E50000B210A480068FFF792FB0DE001220721F1
:100E600007480068FFF78BFB01220821044800684F
:100E7000FFF785FB00E000BF00BF10BD2801002088
:100E80002C01002010B5044624B1012C0FD0022CF7
:100E900027D119E00022062113480068FFF76FFBF5
:100EA0000022072110480068FFF769FB1AE00022C2
:100EB0000A210D480068FFF762FB00220B210A4857
:100EC0000068FFF75CFB0DE000220721074800687F
:100ED000FFF755FB0022082104480068FFF74FFB8D
:100EE00000E000BF00BF10BD280100202C01002041
:100EF000012808D108490968096841F00101064A3A
:100F00001268116007E004490968096821F00101CD
:100F1000014A126811607047D40000209FED061A44
:100F2000F7EE000A50EE010AFCEEE00A10EE900A1D
:100F300002490968486070470024744BD4000020BF
:100F400002480078401C014908707047D800002012
:100F50000348006840F470000149086070470000D1
:100F600088ED00E07047704702480078401C014956
:100F700008707047F80000207047000002480078B1
:100F8000401C014908707047F800002070B52DED35
:100F9000028B0446B0EE408A00260025204600F071
:100FA0001DF84F25A662B4F1804F02D00A48844252
:100FB00004D1002060622804E06202E00020606248
:100FC000E5620121204600F08BF80121204600F067
:100FD00091F8BDEC028B70BD000C004010B50446CA
:100FE0003248844203D12C20FFF798FC5BE0B4F137
:100FF000804F03D10C20FFF791FC54E02C48844231
:1010000003D10D20FFF78AFC4DE02A48844203D12A
:101010000E20FFF783FC46E02748844203D10F20CF
:10102000FFF77CFC3FE02548844203D11020FFF706
:1010300075FC38E02248844203D11120FFF76EFC92
:1010400031E02048844203D12D20FFF767FC2AE0DD
:101050001D48844203D13C20FFF760FC23E01B487D
:10106000844203D13D20FFF759FC1CE0184884421C
:1010700003D13E20FFF752FC15E01648844203D10D
:101080001220FFF74BFC0EE01348844203D11320DB
:10109000FFF744FC07E01148844203D11420FFF716
:1010A0003DFC00E010BD00BFFCE700000000014077
:1010B0000004004000080040000C00400010004008
:1010C0000014004000040140004001400044014081
:1010D0000048014000180040001C00400020004073
:1010E000012903D102680A43026002E002688A43D0
:1010F0000260704721B1C26842F00102C26003E0A1
:10110000C26822F00102C2607047000010B50B4CAB
:10111000207800F0200010B120790949087020786B
:1011200000F0800040B101220549204600F09DF901
:10113000206820F08000206010BD000000440040C6
:10114000AA0000202DE9F0412DED068B0446B0EEFB
:10115000408A0D46C5F10200C000604300EE100A4F
:10116000B8EE400AC8EE000AF0EE608AC5F102004F
:10117000C000604300EE100AB8EE400AC8EE000A54
:10118000BCEEE00A10EE100A86B200EE106AB8EE6D
:10119000400A38EEC00AF3EE000A20EE200A10EEF4
:1011A000101A084600F0A4FD41EC1A0BB0EE4A0AF2
:1011B000F0EE6A0A00F06CF9B0EE409AF0EE609A38
:1011C00051EC190B00F0AAFBC7B247EA06101FFA50
:1011D00080F84046BDEC068BBDE8F0812DE9FC4768
:1011E00004460F4692461D46DDE90A89924884422C
:1011F00028D13020FFF792FB0020FFF78FFB022061
:10120000032100230246CDE9001009218B48006824
:10121000FFF70DF90220032100230246CDE900105B
:101220000A2186480068FFF702F90722092183484E
:101230000068FFF7E3F807220A2180480068FFF7FB
:10124000DDF8DDE07E48844228D11D20FFF766FBF3
:101250000320FFF763FB0220032100230246CDE9B0
:101260000010052177480068FFF7E1F8022003210C
:1012700000230246CDE90010062172480068FFF7FE
:10128000D6F8072205216F480068FFF7B7F8072254
:1012900006216C480068FFF7B1F8B1E06A48844263
:1012A00028D11E20FFF73AFB0320FFF737FB02206F
:1012B000032100230246CDE900100821614800689F
:1012C000FFF7B5F80220032100230246CDE9001004
:1012D00009215C480068FFF7AAF80722082159484D
:1012E0000068FFF78BF80722092156480068FFF7CE
:1012F00085F885E05548844228D13120FFF70EFB60
:101300000220FFF70BFB0220032100230246CDE958
:10131000001006214E480068FFF789F802200321DB
:1013200000230246CDE90010072149480068FFF775
:101330007EF80822062146480068FFF75FF8082279
:10134000072143480068FFF759F859E041488442B3
:1013500028D11F20FFF7E2FA0020FFF7DFFA022072
:10136000032100230246CDE90010194633480068E6
:10137000FFF75DF80220032100230246CDE90010AB
:1013800001212E480068FFF752F8082200212B485F
:101390000068FFF733F80822012128480068FFF7AA
:1013A0002DF82DE02C4884422AD12020FFF7B6FAF0
:1013B0000220FFF7B3FA0320FFF7B0FA022003215F
:1013C00000230246CDE900100C2121480068FFF7F8
:1013D0002EF80220032100230246CDE90010014629
:1013E00018480068FFF723F808220C211848006805
:1013F000FFF704F80822022112480068FEF7FEFFFA
:10140000E06840EAC530E06029469FED140A38469E
:10141000FFF798FE0646A66020692061E06840F06C
:101420000800E060E06840F00400E060E06840F43C
:101430000050E060BDE8FC87001001400001002082
:101440000044004008010020004800400014014012
:1014500004010020004C0040005000400024744B68
:10146000C16841F02001C160704730B503460CE00F
:10147000551EAAB211F8010B5860002400E0641C4C
:1014800042F21075AC42FAD300BF002AF0DC30BD46
:101490002DE9F0412DED020B9FED3D0B2DED028B63
:1014A0009FED3D8BDDE90254C4F30A50A0F2FF36F4
:1014B000142E37DA002E18DA53EC102B9DED020BA8
:1014C00051EC100B00F076F953EC182B00F0E4FA15
:1014D00057D2002CBCBF4FF00044002551DB54EA2A
:1014E000050018BF2E4C1BD14BE02E4820FA06F702
:1014F00004EA070028431FD053EC102B9DED020B8C
:1015000051EC100B00F056F953EC182B00F0C4FA14
:1015100037D2002C03DD4FF48010F0400444BC436C
:1015200000252EE0332E07DCA6F114004FF0FF312A
:1015300021FA00F73D4206D19DED020BBDEC028B76
:1015400002B0BDE8F08153EC102B9DED020B51EC85
:10155000100B00F0D7FA53EC182B00F09DFA10D2C4
:10156000002C0DDD142E08BF641C09D0C6F1340018
:10157000012101FA00F02844A84238BF641C054646
:10158000BD43CDE902549DED020BD7E700000000FA
:101590009C7500883CE4377E0000000000000000DD
:1015A0000000F03FFFFF0F001FB5002074490870D6
:1015B000744908707449087074490860FFF7DAF9D3
:1015C0003A20FFF7ABF90020032103460122CDE9C1
:1015D000001002216E480068FEF729FF0020032159
:1015E00003460122CDE9001069480068FEF71FFF9D
:1015F0000020032101231A46CDE900100D21654882
:101600000068FEF714FF0020032101231A46CDE9EC
:1016100000100B2160480068FEF709FF002003213D
:1016200003460122CDE9001004215C480068FEF762
:10163000FEFE0020032103460122CDE900100A210D
:1016400056480068FEF7F3FE9FED550A0121084653
:10165000FFF712FB0020032103460122CDE9001011
:1016600001464B480068FEF7E2FE012000210B46D0
:101670000A46CDE90010014645480068FEF7D7FE4E
:1016800000200346012211460090FEF75FFE012272
:1016900005210720FFF700F900200321034601225E
:1016A000CDE9001001463F480068FEF7C0FE022069
:1016B00000210B460A46CDE9001001463948006872
:1016C000FEF7B5FE00200346012202210090032010
:1016D000FEF73CFE012204210820FFF7DDF89FED14
:1016E000300A31480068FFF751FC012203211D2018
:1016F000FFF7D2F800200090034602464FF416513F
:1017000001902A480068FFF769FD28480068FFF744
:10171000A7FE01200021CDE900010B460A46CDE9D4
:101720000210014622480068FFF740FA00210846EF
:10173000FFF7DAFA0020FFF7A5FB1FE0FFF70CF830
:10174000FEF78AFFFEF728FFC0B10D480078401C65
:101750000B490870087800EBD0714910A0EB4101EB
:1017600031B9012204210D480068FEF708FF05E0A9
:101770000022042109480068FEF701FFDEE70000AF
:1017800098000020990000209A000020A00000206E
:1017900000000020080000201000002004000020AD
:1017A0006F12833A0C0000203800002074000020E3
:1017B0008000002010B591EA030F48BF83F000437A
:1017C00000F1B481841A71EB030C05D2121943EBBA
:1017D0000C03001B61EB0C01DFF824E14FEA11540C
:1017E000A4EB135C1EEA430F18BF9EEA445F73D05C
:1017F00023EA0E03DCF1200E21EA045143F48013A6
:1018000032D322FA0CFE10EB0E0023FA0CFE41EB51
:101810000E01CCF1200E03FA0EFE10EB0E0051F17A
:101820000001B1F5801FCCF1200E32D201EB045142
:1018300012FA0EF2BDE8104058BF7047401C38BF86
:101840005FEA420218BF7047002814BF20F0010071
:1018500041F100014FEA410313F5001F38BF704703
:10186000A1F1C04100F012B9012A43EB0302ACF12F
:10187000200CDCF11F0E32BF4FF0000E23FA0CF3E8
:1018800010EB030041EB0451B4EB115FD0D0A1EB9E
:10189000045101F5801149085FEA300001EB045161
:1018A0000ED350F1000038BF12FA0EFE08D1BDE889
:1018B0001040C9E7401C38BF5FEA4202CAD1C3E703
:1018C000BDE810404FEA410313F5001F38BF7047D1
:1018D000A1F1C04100F0DAB89EEA445F08D011EAF5
:1018E0005E0FBDE8104004BF01F0004100207047CA
:1018F000BDE8104070B500F07BF800BF64FBBE3E51
:101900000000E0FF491058BFC1F140415B1058BFD3
:10191000C3F140438B42EFF3008070474FEA11530D
:10192000A3F58063D3F11E03A8BFD3F1200C08DB1D
:101930004FF0004242EAC12252EA505232FA03F01A
:10194000704709420BD4102BC4BF0020704703F529
:10195000787CBCF1FF3F05D04FF0FF3070474FF06F
:101960000000704770B500F043F800BF4992248032
:1019700000207047F0E7000051EA030C17D41CF573
:10198000801F58BFBCF5801F00F10680994218BF28
:10199000704708BF9042704707D711F5801F58BFA6
:1019A00013F5801F19D499427047894270471CF57E
:1019B000801F08D5BCF5801FF7D58B4218BF704734
:1019C00008BF824270474FF4001C1CEB410F38BF28
:1019D0001CEB430F01D28B42704770B500F008F842
:1019E000922449004FF000514FF08053FFF78ABF17
:1019F0000EF1020E2EF0030E5EF8046B364205D493
:101A0000012A43EB030515F5001F12D8012841EB0D
:101A1000010C1CF5001F0CD80ED14FEAD17C15F536
:101A2000001F0CEB4C0C0CF1020C08BF4CEBD37CF0
:101A300004E04FF0080C01E04FEAD37C0CEB4C05BE
:101A400026FA05F606F00706B6F1040C06D20EEBF0
:101A5000860CBDE870404CF0010C6047DFE80CF0EC
:101A6000090B02024FF000414FF00000A1F50021E8
:101A700070BD19461046012851EB010418BFD4F57A
:101A8000001484BF002001F0004170BD0808A0F5DB
:101A900000114FEA3101704753EA010C17D41CF5CD
:101AA000801F58BFBCF5801F00F106808B4218BF15
:101AB000704708BF8242704707D713F5801F58BF91
:101AC00011F5801F19D48B4270479B4270471CF55B
:101AD000801F08D5BCF5801FF7D5994218BF704705
:101AE00008BF904270474FF4001C1CEB430F38BFF7
:101AF0001CEB410F01D2994270470FB40CBC03BCE0
:101B0000FFF76BBF91EA030F10B581F000413FF57D
:101B100059AE83F0004300F009B8000010B591EA17
:101B2000030F48BF83F000433FF54CAE841A71EBBE
:101B3000030C07D212198CF0004C43EB0C03001B72
:101B400061EB0C01DFF8A4E14FEA1154A4EB135C44
:101B50001EEA430F18BF9EEA445F00F0B08023EAFC
:101B60006E03524221EA0451C3EB6E0338BF5B1E81
:101B7000DCF1200E25D322FA0CFE10EB0E0043FA06
:101B80000CFE41EB0E01CCF1200E03FA0EFE10EB21
:101B90000E0051F10001CCF1200E29D412FA0EF200
:101BA00001EB0451BDE8104058BF7047401C1CBFFA
:101BB000B2F1004F704700280CBF491C20F0010013
:101BC000704712EB020E43EB030218BF4FF0010EF9
:101BD0004EEA4202ACF1200CDCF11E0E54D943FA5D
:101BE0000CFE10EB0E0051F1FF31CCF11E0ED5D5DD
:101BF0000EF1010E12FA0EFE404141EB010101EB24
:101C0000445C5FEA5C5C10D910EBDE7001EB0451C0
:101C100038BFBEF1004FBDE8104018BF7047002824
:101C20000CBF491C20F00100704730D24FEAD42C81
:101C300011F5001124F400641BD0B1FA81F20B3AC3
:101C4000A41AA41ED2F12003914030FA03F31943E1
:101C5000904001EBCC71002C01EB0451BDE8104029
:101C6000A8BF704701F1C0414FF0000001F00041F2
:101C70007047B0FA80F310FA03F100D110BDE41AF6
:101C8000173C4805C90AE4E701EB045110BD4910AF
:101C900001EB0451BDE810404FEA300002E04FF084
:101CA000000170474A0008BF0042F8D0B2F5001F9B
:101CB00028BF704701F000414FF0000070479EEAD6
:101CC000445F07D011EA5E0FBDE8104004BF002159
:101CD00000207047BDE8104070B5FFF789FE00BFD7
:101CE00040DFF63E83F00041104670470000E0FF01
:101CF00043004FEAD30C4FEA3C0C43401FBF400760
:101D00000CF1605113F0FE4F70471CF0006F03D1CF
:101D100000200CF0004170470CF0004343EA507083
:101D200010B540EACC0000F00EF800BF00000092B1
:101D30004FEA0001FFF7AABE4FF000414FF000004C
:101D4000A1F5002170470EF1020E2EF0030E5EF891
:101D5000044B244204D44FEA4102B2F17F4F11D820
:101D60004FEA4003B3F17F4F0CD80ED14FEAD07C3D
:101D7000B2F17F4F0CEB4C0C0CF1020C08BF4CEB9A
:101D8000D17C04E04FF0080C01E04FEAD17C0CEB71
:101D90004C0324FA03F404F00704B4F1040C06D253
:101DA0000EEB840CBDE810404CF0010C6047DFE8FE
:101DB0000CF0070802024FF00040A0F5800010BDB3
:101DC0000846420018BFD2F1807288BF00F0004080
:101DD00010BD4FF04070E1EE100A7047FC1D000886
:101DE0000000002030010000C4010008BC1E0008F3
:101DF000300100206006000020020008211302408C
:101E00001A04041A08041A0C041A10041A14041AE6
:101E100018041A1C041A20041A2404162802400864
:101E2000E022E0330140193419041A08041A0C04A2
:101E30001A10042A1414191C1A40041A44041A48CB
:101E4000041A18141A1C041A20041A4C042A502CC0
:101E5000292019082A4834190C1A30041A380C1A87
:101E60003C041A54041A58041A5C04B127616263D2
:101E7000646520200D48656C6C6F576F726C647ED2
:101E80000A120D225530084E3332280C06011A383A
:101E9000A42A70483C024010A8712A3C6029B45919
:101EA000E0419AE120291869FC294429105A0414B8
:0C1EB00051295D31291404001C0240007F
:040000050800018965
:00000001FF
