:020000040800F2
:1000000070070020290200083102000833020008AE
:10001000350200083702000839020008000000001D
:100020000000000000000000000000003B0200088B
:100030003D020008000000003F020008690D0008B2
:10004000430200084302000843020008430200087C
:10005000430200084302000843020008E5020008CA
:10006000ED020008430200084302000843020008B2
:10007000430200084302000843020008430200084C
:10008000430200084302000843020008430200083C
:10009000430200084302000843020008430200082C
:1000A0004302000843020008430200088D0D0008C7
:1000B0008F0D0008910D0008A10D000843020008F3
:1000C00043020008430200084302000843020008FC
:1000D00043020008430200084D0F000843020008D5
:1000E00043020008430200084302000843020008DC
:1000F00043020008430200084302000843020008CC
:1001000043020008430200084302000843020008BB
:10011000430200084302000843020008A50D00083E
:10012000430200084302000843020008430200089B
:10013000430200084302000843020008430200088B
:10014000430200084302000843020008430200087B
:10015000430200084302000843020008430200086B
:10016000430200084302000843020008430200085B
:100170004302000843020008430200080000000098
:10018000430200084302000800F002F800F03CF8C7
:100190000AA090E8000C82448344AAF10107DA45E2
:1001A00001D100F031F8AFF2090EBAE80F0013F0F8
:1001B000010F18BFFB1A43F001031847281A00006B
:1001C000481A0000103A24BF78C878C1FAD85207FC
:1001D00024BF30C830C144BF04680C6070470000C1
:1001E0000023002400250026103A28BF78C1FBD840
:1001F000520728BF30C148BF0B6070471FB501F0E0
:10020000ECFC1FBD10B510BD00F037F81146FFF72C
:10021000F5FF01F0E9F800F055F803B4FFF7F2FF3D
:1002200003BC00F059F8000009488047094800471E
:10023000FEE7FEE7FEE7FEE7FEE7FEE7FEE7FEE796
:10024000FEE7FEE704480549054A064B70470000F3
:10025000790D000889010008700100207007002056
:100260007003002070030020704770477047000043
:10027000004870471001002070477546FFF7F8FFEF
:10028000AE4605006946534620F00700854618B083
:1002900020B5FFF7D7FFBDE820404FF000064FF034
:1002A00000074FF000084FF0000B21F00701AC46AB
:1002B000ACE8C009ACE8C009ACE8C009ACE8C009CA
:1002C0008D46704710B50446AFF300802046BDE868
:1002D0001040FFF7A2BF000001491820ABBEFEE7A7
:1002E0002600020010B500F037F910BD10B500F07F
:1002F00059F910BD04490968496901228240114336
:10030000014A126851617047D40000202DE9F04184
:1003100080460C4615461E46069F2146404600F084
:100320009BFC97B91848006880680121A1400843E8
:1003300015490968886014480068C0680021A14018
:10034000084311490968C86013E0012F11D10E4814
:10035000006881680020A04001430B48006881606C
:1003600009480068C1680120A040014306480068B0
:10037000C1602946204600F015F83146204600F0BD
:1003800005F8BDE8F0810000D4000020044A12689E
:10039000526801FA00F31A43014B1B685A60704718
:1003A000D4000020044A1268126801FA00F31A43CC
:1003B000014B1B681A607047D400002030B50368F9
:1003C0004D000224AC4023430360082906DA036A87
:1003D0008C0002FA04F42343036207E0436AA1F1AC
:1003E0000804A40002FA04F42343436230BD2DE95B
:1003F000F04705460E4617461C46DDE908892846A3
:1004000000F016F83A463146284600F081F82246B8
:100410003146284600F08CF842463146284600F026
:100420007FF84A463146284600F06AF8BDE8F08772
:1004300010B504462748844203D1002000F048FA52
:1004400046E02548844203D1012000F041FA3FE014
:100450002248844203D1022000F03AFA38E02048D2
:10046000844203D1032000F033FA31E01D48844276
:1004700003D1042000F02CFA2AE01B48844203D167
:10048000052000F025FA23E01848844203D1062015
:1004900000F01EFA1CE01648844203D1072000F049
:1004A00017FA15E01348844203D1082000F010FA2F
:1004B0000EE01148844203D1092000F009FA07E058
:1004C0000E48844203D10A2000F002FA00E010BD79
:1004D00000BFFCE7000002400004024000080240A8
:1004E000000C0240001002400014024000180240BC
:1004F000001C02400020024000240240002802406C
:1005000010B5C3684C0002FA04F42343C36010BD65
:1005100010B503684C0002FA04F42343036010BDD5
:1005200010B583684C0002FA04F42343836010BDC5
:1005300010B5436802FA01F42343436010BD10B5BF
:10054000012A03D101238B40836104E001F11003F0
:1005500001249C40846110BD10B5012200210E4889
:100560000068FFF7ECFF00200C49086004E00B482E
:100570000068401C0949086008480068084988422A
:10058000F5D30022114604480068FFF7D8FF012088
:10059000FFF7B0FE10BD0000DC000020E4000020EA
:1005A00040420F0010B5012200210E480068FFF7FD
:1005B000C6FF00200C49086004E00B480068401C9E
:1005C000094908600848006808498842F5D30022B4
:1005D000114604480068FFF7B2FF0220FFF78AFEC9
:1005E00010BD0000E0000020E400002040420F00A9
:1005F00000200449096888606FF07F40014909685C
:1006000048607047C800002000203849087038480A
:100610000078002868D000203549087033480078F9
:1006200020F00100401C3149087032480078401C1D
:1006300030490870084600780A2855DB2B480078B6
:1006400020F00200801C2949087000202949087008
:1006500029480078401C2849087008460078052879
:1006600042DB2248007820F00400001D1F4908707A
:1006700000202149087021480078401C1F4908705B
:100680000846007802282FDB1848007820F0080080
:10069000083016490870002018490870184800787A
:1006A000401C174908700846007805281CDB0F48D5
:1006B000007820F0100010300C490870002010491C
:1006C000087010480078401C0E49087008460078F1
:1006D000022809DB0548007820F02000203003497B
:1006E000087000200749087070470000D200002001
:1006F000CC000020CD000020CE000020CF00002044
:10070000D0000020D100002000203849087038486F
:100710000078002868D000203549087033480078F8
:1007200020F00100401C3149087032480078401C1C
:1007300030490870084600780A2855DB2B480078B5
:1007400020F00200801C2949087000202949087007
:1007500029480078401C2849087008460078052878
:1007600042DB2248007820F00400001D1F49087079
:1007700000202149087021480078401C1F4908705A
:100780000846007802282FDB1848007820F008007F
:100790000830164908700020184908701848007879
:1007A000401C174908700846007805281CDB0F48D4
:1007B000007820F0100010300C490870002010491B
:1007C000087010480078401C0E49087008460078F0
:1007D000022809DB0548007820F02000203003497A
:1007E000087000200749087070470000F2000020E0
:1007F000EC000020ED000020EE000020EF000020C3
:10080000F0000020F100002030B5C31700EBD363E7
:100810005C110D4B1B68803353F824300246C4171B
:1008200000EBD4646411A0EB44150124AC402343D5
:100830000146C41700EBD4646511034C246880346E
:1008400044F8253030BD0000E800002070B50546B2
:100850000E461446284600F00DF83CB1284600F03C
:100860000FF83146284600F02BF802E02846FFF743
:10087000CBFF70BD10B504462046FFF7C5FF10BD85
:1008800030B5C31700EBD3635B110C4C246854F8EC
:1008900023300246C41700EBD4646411A0EB441566
:1008A0000124AC4023430146C41700EBD464641117
:1008B000024D2D6845F8243030BD0000E8000020CE
:1008C000024A126802F5407211547047E800002095
:1008D00000210C2809DA134A1268116B01228240A8
:1008E0001143104A126811631AE02C280CDA0D4AE1
:1008F0001268116CA0F10C02012303FA02F21143F9
:10090000084A126811640BE0064A1268516CA0F1A3
:100910002C02012303FA02F21143024A12685164C5
:1009200070470000BC00002000BF0E48006800684F
:1009300040F001000B490968086000BF09480068E1
:100940008068084909688860064800688068054929
:1009500009688860034800688068024909688860FF
:1009600070470000BC0000201CB504467248844259
:1009700043D13820FFF7ACFF0020FFF7A9FF00208C
:10098000009003460122042101906C480068FFF7A3
:100990002EFD0020032103460222CDE9001005218F
:1009A00066480068FFF723FD00200321034602226A
:1009B000CDE90010062161480068FFF718FD00200E
:1009C000032103460222CDE9001007215B4800689D
:1009D000FFF70DFD0522114658480068FFF7EEFCB1
:1009E0000522062155480068FFF7E8FC052207218B
:1009F00052480068FFF7E2FC9CE05148844249D12C
:100A00001A20FFF765FF0120FFF762FF002000902A
:100A1000034602220C2101904A480068FFF7E7FCD8
:100A20000020032103460222CDE900100D21454894
:100A30000068FFF7DCFC0020032103460222CDE919
:100A400000100E213F480068FFF7D1FC0020032171
:100A500003460222CDE900100F213A480068FFF753
:100A6000C6FC05220C2137480068FFF7A7FC0522C9
:100A70000D2134480068FFF7A1FC05220E21314802
:100A80000068FFF79BFC05220F212E480068FFF746
:100A900095FC4FE02C4884424CD11B20FFF718FFF7
:100AA0000020FFF715FF0220FFF712FF00200321AF
:100AB00003460122CDE900100F2120480068FFF70E
:100AC00096FC0020032103460222CDE900100A21F2
:100AD0001E480068FFF78BFC02200321002302461A
:100AE000CDE900100B2119480068FFF780FC0020B9
:100AF000032103460222CDE900100C2113480068AF
:100B0000FFF775FC06220F210C480068FFF756FC22
:100B100006220A210D480068FFF750FC06220B212F
:100B20000A480068FFF74AFC06220C2107480068C3
:100B3000FFF744FC1CBD0000003001400401002010
:100B40000038004008010020003C00400C0100205B
:100B50002DE9F05F04460D4616461F46DDE90BAB56
:100B6000DDF82890DDF834802046FFF7FDFE206890
:100B700040EA85002060206840EACB2020602068A1
:100B800030432060206840EAC91020601DB1206811
:100B900040EAC7002060B8F1010F04D1206840F49A
:100BA0004070206008E0B8F1000F04D1606840F0A8
:100BB0000400606000E000BF206840EA8A202060F6
:100BC000BDE8F09F10B504460E48844206D10022CD
:100BD00004210D480068FFF7B2FC12E00B48844284
:100BE00006D100220C210A480068FFF7A8FC08E0A3
:100BF0000848844205D100220F2103480068FFF70E
:100C00009EFC10BD0030014004010020003800406F
:100C100008010020003C004030B5056845F0400563
:100C200005600AE0551EEAB200BF057A05F002052C
:100C3000002DFAD011F8013BC360002AF2DC00BF9E
:100C4000057A05F08005002DFAD1047B047A056849
:100C500025F04005056030BD70B505460C463A20CC
:100C6000FFF736FEE21704EB927293100D4A1268FA
:100C7000083252F823202146E31704EB93739B10AC
:100C8000A4EB83039B0005FA03F31A432046E31702
:100C900004EB93739E10034B1B68083343F8262024
:100CA00070BD0000D800002010B503460C46F0EEE1
:100CB000401AFFF79DFC012B08D116480068006818
:100CC00040F0040013490968086007E01148006813
:100CD000006820F004000F4909680860012C08D161
:100CE0000C480068006840F002000A490968086082
:100CF00007E008480068006820F00200054909681C
:100D00000860B0EE610A00F01DF8012000F004F860
:100D100010BD0000C8000020012808D1084909685A
:100D2000096841F00101064A1268116007E00449B0
:100D30000968096821F00101014A126811607047D1
:100D4000C80000209FED061AF7EE000A50EE010AD7
:100D5000FCEEE00A10EE900A02490968486070470C
:100D60000024744BC800002002480078401C014950
:100D700008707047CC0000200348006840F4700001
:100D8000014908607047000088ED00E07047704737
:100D900002480078401C014908707047EC000020B0
:100DA0007047000002480078401C014908707047F5
:100DB000EC00002070B52DED028B0446B0EE408AA9
:100DC00000260025204600F029F8DFED120AB7EED4
:100DD000000A18EE200ABCEEC00A10EE105AA662F5
:100DE000B4F1804F02D00C48844204D100206062EC
:100DF0002804E06202E000206062E56201212046F2
:100E000000F08EF80121204600F094F8BDEC028B32
:100E100070BD00000024744B000C004010B5044667
:100E20003248844203D12C20FFF752FD5BE0B4F13D
:100E3000804F03D10C20FFF74BFD54E02C48844237
:100E400003D10D20FFF744FD4DE02A48844203D131
:100E50000E20FFF73DFD46E02748844203D10F20D6
:100E6000FFF736FD3FE02548844203D11020FFF70D
:100E70002FFD38E02248844203D11120FFF728FDDE
:100E800031E02048844203D12D20FFF721FD2AE0E4
:100E90001D48844203D13C20FFF71AFD23E01B4884
:100EA000844203D13D20FFF713FD1CE01848844223
:100EB00003D13E20FFF70CFD15E01648844203D114
:100EC0001220FFF705FD0EE01348844203D11320E2
:100ED000FFF7FEFC07E01148844203D11420FFF71E
:100EE000F7FC00E010BD00BFFCE70000000001407F
:100EF0000004004000080040000C004000100040CA
:100F00000014004000040140004001400044014042
:100F10000048014000180040001C00400020004034
:100F2000012903D102680A43026002E002688A4391
:100F30000260704721B1C26842F00102C26003E062
:100F4000C26822F00102C2607047000010B50B4C6D
:100F5000207800F0200010B120790949087020782D
:100F600000F0800040B101220549204600F09DF9C3
:100F7000206820F08000206010BD00000044004088
:100F8000AA0000202DE9F0412DED068B0446B0EEBD
:100F9000408A0D46C5F10200C000604300EE100A11
:100FA000B8EE400AC8EE000AF0EE608AC5F1020011
:100FB000C000604300EE100AB8EE400AC8EE000A16
:100FC000BCEEE00A10EE100A86B200EE106AB8EE2F
:100FD000400A38EEC00AF3EE000A20EE200A10EEB6
:100FE000101A084600F088FD41EC1A0BB0EE4A0AD0
:100FF000F0EE6A0A00F06CF9B0EE409AF0EE609AFA
:1010000051EC190B00F08EFBC7B247EA06101FFA2D
:1010100080F84046BDEC068BBDE8F0812DE9FC4729
:1010200004460F4692461D46DDE90A8992488442ED
:1010300028D13020FFF74CFC0020FFF749FC0220AC
:10104000032100230246CDE9001009218B480068E6
:10105000FFF7CDF90220032100230246CDE900105D
:101060000A2186480068FFF7C2F907220921834850
:101070000068FFF7A3F907220A2180480068FFF7FC
:101080009DF9DDE07E48844228D11D20FFF720FC39
:101090000320FFF71DFC0220032100230246CDE9B7
:1010A0000010052177480068FFF7A1F9022003210D
:1010B00000230246CDE90010062172480068FFF7C0
:1010C00096F9072205216F480068FFF777F9072294
:1010D00006216C480068FFF771F9B1E06A48844264
:1010E00028D11E20FFF7F4FB0320FFF7F1FB0220BD
:1010F000032100230246CDE9001008216148006861
:10110000FFF775F90220032100230246CDE9001004
:1011100009215C480068FFF76AF90722082159484D
:101120000068FFF74BF90722092156480068FFF7CE
:1011300045F985E05548844228D13120FFF7C8FBA6
:101140000220FFF7C5FB0220032100230246CDE960
:10115000001006214E480068FFF749F902200321DC
:1011600000230246CDE90010072149480068FFF737
:101170003EF90822062146480068FFF71FF90822B9
:10118000072143480068FFF719F959E041488442B4
:1011900028D11F20FFF79CFB0020FFF799FB0220BE
:1011A000032100230246CDE90010194633480068A8
:1011B000FFF71DF90220032100230246CDE90010AC
:1011C00001212E480068FFF712F9082200212B4860
:1011D0000068FFF7F3F80822012128480068FFF7AC
:1011E000EDF82DE02C4884422AD12020FFF770FB37
:1011F0000220FFF76DFB0320FFF76AFB02200321AB
:1012000000230246CDE900100C2121480068FFF7B9
:10121000EEF80220032100230246CDE9001001462A
:1012200018480068FFF7E3F808220C211848006806
:10123000FFF7C4F80822022112480068FFF7BEF841
:10124000E06840EAC530E06029469FED140A384660
:10125000FFF798FE0646A66020692061E06840F02E
:101260000800E060E06840F00400E060E06840F4FE
:101270000050E060BDE8FC8700100140F400002051
:1012800000440040FC0000200048004000140140E1
:10129000F8000020004C0040005000400024744B37
:1012A000C16841F02001C160704730B503460CE0D1
:1012B000551EAAB211F8010B5860002400E0641C0E
:1012C00042F21075AC42FAD300BF002AF0DC30BD08
:1012D0002DE9F0412DED020B9FED3D0B2DED028B25
:1012E0009FED3D8BDDE90254C4F30A50A0F2FF36B6
:1012F000142E37DA002E18DA53EC102B9DED020B6A
:1013000051EC100B00F05AF953EC182B00F0C8FA0E
:1013100057D2002CBCBF4FF00044002551DB54EAEB
:10132000050018BF2E4C1BD14BE02E4820FA06F7C3
:1013300004EA070028431FD053EC102B9DED020B4D
:1013400051EC100B00F03AF953EC182B00F0A8FA0E
:1013500037D2002C03DD4FF48010F0400444BC432E
:1013600000252EE0332E07DCA6F114004FF0FF31EC
:1013700021FA00F73D4206D19DED020BBDEC028B38
:1013800002B0BDE8F08153EC102B9DED020B51EC47
:10139000100B00F0BBFA53EC182B00F081FA10D2BE
:1013A000002C0DDD142E08BF641C09D0C6F13400DA
:1013B000012101FA00F02844A84238BF641C054608
:1013C000BD43CDE902549DED020BD7E700000000BC
:1013D0009C7500883CE4377E00000000000000009F
:1013E0000000F03FFFFF0F001FB5002065490870A7
:1013F000654908706549087065490860FFF794FA07
:101400003A20FFF765FA0020032103460122CDE9C7
:10141000001002215F480068FEF7E9FF0020032169
:1014200003460122CDE900105A480068FEF7DFFFAD
:101430000020032101231A46CDE900100D21564852
:101440000068FEF7D4FF0020032101231A46CDE9EE
:1014500000100B2151480068FEF7C9FF9FED500AAC
:1014600001210846FFF720FC00200321034601224A
:10147000CDE90010014647480068FEF7B8FF01209B
:1014800000210B460A46CDE900100146414800689C
:10149000FEF7ADFF00200346012211460090FEF743
:1014A00035FF012205210720FFF7D0F90020032195
:1014B00003460122CDE9001001463A480068FEF7D4
:1014C00096FF022000210B460A46CDE90010014696
:1014D00034480068FEF78BFF0020034601220221FA
:1014E00000900320FEF712FF012204210820FFF7DD
:1014F000ADF99FED2B0A2C480068FFF75BFC012239
:1015000003211D20FFF7A2F90020009003460246A8
:101510004FF41651019025480068FFF77FFD2348DE
:101520000068FFF7BDFE01200021CDE900010B4658
:101530000A46CDE9021001461D480068FFF708FB86
:101540001FE0FFF7E1F8FFF75FF80120039003AC1D
:1015500017480068FFF736FB01222146144800684F
:10156000FFF75AFB00201349086004E011480068A7
:10157000401C104908600F4800680F498842F5D3A5
:1015800000BFDEE798000020990000209A000020AC
:10159000A000002000000020080000201000002013
:1015A0006F12833A0C0000203800002074000020E5
:1015B000800000209C000020A086010010B591EA68
:1015C000030F48BF83F0004300F1B481841A71EB2C
:1015D000030C05D2121943EB0C03001B61EB0C0149
:1015E000DFF824E14FEA1154A4EB135C1EEA430F29
:1015F00018BF9EEA445F73D023EA0E03DCF1200E8D
:1016000021EA045143F4801332D322FA0CFE10EB8A
:101610000E0023FA0CFE41EB0E01CCF1200E03FA72
:101620000EFE10EB0E0051F10001B1F5801FCCF160
:10163000200E32D201EB045112FA0EF2BDE8104036
:1016400058BF7047401C38BF5FEA420218BF70475E
:10165000002814BF20F0010041F100014FEA4103CE
:1016600013F5001F38BF7047A1F1C04100F012B957
:10167000012A43EB0302ACF1200CDCF11F0E32BF58
:101680004FF0000E23FA0CF310EB030041EB045172
:10169000B4EB115FD0D0A1EB045101F580114908E2
:1016A0005FEA300001EB04510ED350F1000038BF67
:1016B00012FA0EFE08D1BDE81040C9E7401C38BF41
:1016C0005FEA4202CAD1C3E7BDE810404FEA4103D6
:1016D00013F5001F38BF7047A1F1C04100F0DAB820
:1016E0009EEA445F08D011EA5E0FBDE8104004BFD7
:1016F00001F0004100207047BDE8104070B500F0D7
:101700007BF800BF64FBBE3E0000E0FF491058BFFD
:10171000C1F140415B1058BFC3F140438B42EFF32E
:10172000008070474FEA1153A3F58063D3F11E0385
:10173000A8BFD3F1200C08DB4FF0004242EAC122DF
:1017400052EA505232FA03F0704709420BD4102B80
:10175000C4BF0020704703F5787CBCF1FF3F05D083
:101760004FF0FF3070474FF00000704770B500F049
:1017700043F800BF4992248000207047F0E7000042
:1017800051EA030C17D41CF5801F58BFBCF5801F0D
:1017900000F10680994218BF704708BF9042704719
:1017A00007D711F5801F58BF13F5801F19D4994230
:1017B0007047894270471CF5801F08D5BCF5801F13
:1017C000F7D58B4218BF704708BF824270474FF46D
:1017D000001C1CEB410F38BF1CEB430F01D28B42A6
:1017E000704770B500F008F8922449004FF000519E
:1017F0004FF08053FFF78ABF0EF1020E2EF0030E5A
:101800005EF8046B364205D4012A43EB030515F557
:10181000001F12D8012841EB010C1CF5001F0CD849
:101820000ED14FEAD17C15F5001F0CEB4C0C0CF1DE
:10183000020C08BF4CEBD37C04E04FF0080C01E035
:101840004FEAD37C0CEB4C0526FA05F606F00706AA
:10185000B6F1040C06D20EEB860CBDE870404CF0DD
:10186000010C6047DFE80CF0090B02024FF0004169
:101870004FF00000A1F5002170BD19461046012867
:1018800051EB010418BFD4F5001484BF002001F00F
:10189000004170BD0808A0F500114FEA3101704702
:1018A00053EA010C17D41CF5801F58BFBCF5801FEC
:1018B00000F106808B4218BF704708BF8242704714
:1018C00007D713F5801F58BF11F5801F19D48B421D
:1018D00070479B4270471CF5801F08D5BCF5801FE0
:1018E000F7D5994218BF704708BF904270474FF430
:1018F000001C1CEB430F38BF1CEB410F01D2994277
:1019000070470FB40CBC03BCFFF76BBF91EA030F29
:1019100010B581F000413FF559AE83F0004300F06F
:1019200009B8000010B591EA030F48BF83F00043E7
:101930003FF54CAE841A71EB030C07D212198CF0F0
:10194000004C43EB0C03001B61EB0C01DFF8A4E13E
:101950004FEA1154A4EB135C1EEA430F18BF9EEA32
:10196000445F00F0B08023EA6E03524221EA045142
:10197000C3EB6E0338BF5B1EDCF1200E25D322FAC9
:101980000CFE10EB0E0043FA0CFE41EB0E01CCF105
:10199000200E03FA0EFE10EB0E0051F10001CCF107
:1019A000200E29D412FA0EF201EB0451BDE81040CA
:1019B00058BF7047401C1CBFB2F1004F7047002851
:1019C0000CBF491C20F00100704712EB020E43EBE4
:1019D000030218BF4FF0010E4EEA4202ACF1200C98
:1019E000DCF11E0E54D943FA0CFE10EB0E0051F13F
:1019F000FF31CCF11E0ED5D50EF1010E12FA0EFEFE
:101A0000404141EB010101EB445C5FEA5C5C10D9B1
:101A100010EBDE7001EB045138BFBEF1004FBDE8A2
:101A2000104018BF704700280CBF491C20F001006F
:101A3000704730D24FEAD42C11F5001124F4006421
:101A40001BD0B1FA81F20B3AA41AA41ED2F12003E2
:101A5000914030FA03F31943904001EBCC71002C14
:101A600001EB0451BDE81040A8BF704701F1C0412F
:101A70004FF0000001F000417047B0FA80F310FA17
:101A800003F100D110BDE41A173C4805C90AE4E788
:101A900001EB045110BD491001EB0451BDE81040A9
:101AA0004FEA300002E04FF0000170474A0008BFE3
:101AB0000042F8D0B2F5001F28BF704701F0004186
:101AC0004FF0000070479EEA445F07D011EA5E0FB6
:101AD000BDE8104004BF002100207047BDE8104061
:101AE00070B5FFF789FE00BF40DFF63E83F000418E
:101AF000104670470000E0FF43004FEAD30C4FEA66
:101B00003C0C43401FBF40070CF1605113F0FE4FE7
:101B100070471CF0006F03D100200CF000417047AB
:101B20000CF0004343EA507010B540EACC0000F0DE
:101B30000EF800BF000000924FEA0001FFF7AABEB6
:101B40004FF000414FF00000A1F5002170470EF169
:101B5000020E2EF0030E5EF8044B244204D44FEA2A
:101B60004102B2F17F4F11D84FEA4003B3F17F4FEA
:101B70000CD80ED14FEAD07CB2F17F4F0CEB4C0C5D
:101B80000CF1020C08BF4CEBD17C04E04FF0080CC8
:101B900001E04FEAD17C0CEB4C0324FA03F404F08F
:101BA0000704B4F1040C06D20EEB840CBDE810401F
:101BB0004CF0010C6047DFE80CF0070802024FF020
:101BC0000040A0F5800010BD0846420018BFD2F1C9
:101BD000807288BF00F0004010BD4FF04070E1EE11
:101BE000100A7047041C00080000002010010000CB
:101BF000C4010008141D0008100100206006000048
:101C0000E001000800000240000402400008024019
:101C1000000C024000100240001402400018024074
:101C2000001C024000200240002402400028024024
:101C300008E000E000000140000000400004004017
:101C400000080040000C004000100040001400405C
:101C500000040140004001400044014000480140B0
:101C600000180040001C004000200040004C0040D4
:101C70000050004000100140004400400048004077
:101C8000001401400030014000380040003C00409A
:101C90000054004000580040005C0040000000007C
:101CA0000000000000000000616263646520000025
:101CB00048656C6C6F576F726C647E0A00000D0093
:101CC0000038024000700040003C024010E000E09C
:101CD0000000000000000000003C0140003801400E
:101CE00000000240000C02400000000000E100E0A3
:101CF0000000000000000000000002400008024058
:101D0000000C024000380240000002400004024083
:041D10000008024085
:040000050800018965
:00000001FF
