:020000040800F2
:10000000B806002029020008310200083302000867
:10001000350200083702000839020008000000001D
:100020000000000000000000000000003B0200088B
:100030003D020008000000003F02000841020008E5
:10004000430200084302000843020008430200087C
:10005000430200084302000843020008430200086C
:10006000430200084302000843020008430200085C
:10007000430200084302000843020008430200084C
:10008000430200084302000843020008430200083C
:10009000430200084302000843020008430200082C
:1000A000430200084302000843020008430200081C
:1000B000430200084302000843020008430200080C
:1000C00043020008430200084302000843020008FC
:1000D00043020008430200081D050008430200080F
:1000E00043020008430200084302000843020008DC
:1000F00043020008430200084302000843020008CC
:1001000043020008430200084302000843020008BB
:1001100043020008430200084302000843020008AB
:10012000430200084302000843020008430200089B
:10013000430200084302000843020008430200088B
:10014000430200084302000843020008430200087B
:10015000430200084302000843020008430200086B
:10016000430200084302000843020008430200085B
:100170004302000843020008430200080000000098
:10018000430200084302000800F002F800F03CF8C7
:100190000AA090E8000C82448344AAF10107DA45E2
:1001A00001D100F031F8AFF2090EBAE80F0013F0F8
:1001B000010F18BFFB1A43F001031847600F00003E
:1001C000800F0000103A24BF78C878C1FAD85207CF
:1001D00024BF30C830C144BF04680C6070470000C1
:1001E0000023002400250026103A28BF78C1FBD840
:1001F000520728BF30C148BF0B6070471FB500F0E1
:1002000088FF1FBD10B510BD00F031F81146FFF793
:10021000F5FF00F0BDFB00F04FF803B4FFF7F2FF6D
:1002200003BC00F057F80000094880470948004720
:10023000FEE7FEE7FEE7FEE7FEE7FEE7FEE7FEE796
:10024000FEE7FEE704480549054A064B70470000F3
:100250000905000889010008B8000020B806002040
:10026000B8020020B80200207047704770477546FA
:1002700000F02CF8AE4605006946534620F0070012
:10028000854618B020B5FFF7DDFFBDE820404FF0F0
:1002900000064FF000074FF000084FF0000B21F070
:1002A0000701AC46ACE8C009ACE8C009ACE8C0093D
:1002B000ACE8C0098D46704710B50446AFF3008026
:1002C0002046BDE81040FFF7A8BF00000048704777
:1002D0005800002001491820ABBEFEE726000200AE
:1002E000704730B503684D000224AC4023430360DF
:1002F000082906DA036A8C0002FA04F42343036235
:1003000007E0436AA1F10804A40002FA04F42343BD
:10031000436230BD2DE9F04306460F4614461D46A4
:10032000DDE9078922463946304600F01DF8012CE8
:100330000AD12A463946304600F026F84246394668
:10034000304600F019F805E024B94A4639463046EF
:1003500000F002F8BDE8F08310B5C3684C0002FA63
:1003600004F42343C36010BD10B503684C0002FAC7
:1003700004F42343036010BD10B583684C0002FAF7
:1003800004F42343836010BD10B5436802FA01F4FE
:100390002343436010BD10B5012A03D101238B40D4
:1003A000836104E001F1100301249C40846110BDCD
:1003B00070B50346CC1701EBD464651103F18004DA
:1003C00054F825400A46CD1701EBD5656D11A1EB18
:1003D00045160125B5402C430846CD1701EBD565E0
:1003E0006E1103F1800545F8264070BD70B50346D7
:1003F000CC1701EBD464651103F5C07454F82540A3
:100400000A46CD1701EBD5656D11A1EB4516012507
:10041000B5402C430846CD1701EBD5656E1103F5A9
:10042000C07545F8264070BDF0B505460E46174626
:100430001C463146284600F014F84CB13146284697
:1004400000F020F83A463146284600F035F803E03F
:1004500031462846FFF7ACFF31462846FFF7C6FF76
:10046000F0BD30B504460D4629462046FFF7A0FFF3
:1004700029462046FFF7BAFF00222946204600F011
:100480001BF830BD70B50346CC1701EBD464641182
:1004900053F824400A46CD1701EBD5656D11A1EB49
:1004A00045160125B5402C430846CD1701EBD5650F
:1004B0006D1143F8254070BD10B500F540735B5CCD
:1004C000134300F54074635410BD10B500220C288E
:1004D00005DA0A6B012383401A430A6312E02C28D1
:1004E00008DA0A6CA0F10C03012404FA03F31A439E
:1004F0000A6407E04A6CA0F12C03012404FA03F318
:100500001A434A6410BD00000348006840F47000BC
:10051000014908607047000088ED00E00548006868
:10052000007800F0200020B10248006800790249FC
:10053000087070471C000020420000202DE9F041A7
:100540002DED068B0446B0EE408A0D46C5F1020043
:10055000C000604300EE100AB8EE400AC8EE000A80
:10056000F0EE608AC5F10200C000604300EE100AA0
:10057000B8EE400AC8EE000ABCEEE00A10EE100A1F
:1005800086B200EE106AB8EE400A38EEC00AF3EE0A
:10059000000A20EE200A10EE101A084600F048FD6E
:1005A00041EC1A0BB0EE4A0AF0EE6A0A00F064F968
:1005B000B0EE409AF0EE609A51EC190B00F04EFB51
:1005C000C7B247EA06101FFA80F84046BDEC068B1A
:1005D000BDE8F0812DE9FC4704460F4692461D46D2
:1005E000DDE90A898D48844227D18D480168302091
:1005F000FFF76BFF0220032100230246CDE9001024
:10060000092188480068FFF785FE022003210023A6
:100610000246CDE900100A2182480068FFF77AFE01
:10062000072209217F480068FFF75BFE07220A21A5
:100630007C480068FFF755FED5E07B48844227D10F
:10064000774801681D20FFF740FF022003210023A7
:100650000246CDE90010052174480068FFF75AFEF4
:100660000220032100230246CDE9001006216F4835
:100670000068FFF74FFE072205216C480068FFF76E
:1006800030FE0722062169480068FFF72AFEAAE02B
:100690006748844227D1624801681E20FFF715FF92
:1006A0000220032100230246CDE9001008215F4803
:1006B0000068FFF72FFE0220032100230246CDE948
:1006C0000010092159480068FFF724FE072208217D
:1006D00056480068FFF705FE0722092153480068C5
:1006E000FFF7FFFD7FE05348844227D14C48016863
:1006F0003120FFF7EAFE0220032100230246CDE964
:10070000001006214C480068FFF704FE0220032178
:1007100000230246CDE90010072147480068FFF793
:10072000F9FD0822062144480068FFF7DAFD082297
:10073000072141480068FFF7D4FD54E03F48844258
:1007400027D1374801681F20FFF7BFFE0220032191
:1007500000230246CDE90010194632480068FFF731
:10076000D9FD0220032100230246CDE9001001211A
:100770002C480068FFF7CEFD0822002129480068B8
:10078000FFF7AFFD0822012126480068FFF7A9FD09
:1007900029E02B48844226D1214801682020FFF718
:1007A00094FE0220032100230246CDE900100C2113
:1007B00021480068FFF7AEFD022003210023024616
:1007C000CDE90010014619480068FFF7A3FD082293
:1007D0000C2119480068FFF784FD08220221134804
:1007E0000068FFF77EFDE06840EAC530E06029461A
:1007F0009FED140A3846FFF7A1FE0646A660E068A2
:1008000040F00800E060E06840F00400E060E0686C
:1008100040F40050E060BDE8FC870000001001409B
:1008200054000020480000200044004050000020F8
:1008300000480040001401404C000020004C0040E3
:10084000005000400024744BC16841F02001C16099
:10085000704730B503460CE0551EAAB211F8010BE3
:100860005860002400E0641C42F21075AC42FAD3D8
:1008700000BF002AF0DC30BD2DE9F0412DED020B68
:100880009FED3D0B2DED028B9FED3D8BDDE902547D
:10089000C4F30A50A0F2FF36142E37DA002E18DA0D
:1008A00053EC102B9DED020B51EC100B00F022F9D4
:1008B00053EC182B00F090FA57D2002CBCBF4FF02D
:1008C0000044002551DB54EA050018BF2E4C1BD113
:1008D0004BE02E4820FA06F704EA070028431FD011
:1008E00053EC102B9DED020B51EC100B00F002F9B4
:1008F00053EC182B00F070FA37D2002C03DD4FF4C4
:100900008010F0400444BC4300252EE0332E07DC69
:10091000A6F114004FF0FF3121FA00F73D4206D155
:100920009DED020BBDEC028B02B0BDE8F08153ECF3
:10093000102B9DED020B51EC100B00F083FA53ECE1
:10094000182B00F049FA10D2002C0DDD142E08BF30
:10095000641C09D0C6F13400012101FA00F02844DA
:10096000A84238BF641C0546BD43CDE902549DED45
:10097000020BD7E7000000009C7500883CE4377E3E
:1009800000000000000000000000F03FFFFF0F002B
:100990001CB54D4801680020FFF797FD4A480168E3
:1009A0000320FFF792FD0020032103460122CDE939
:1009B0000010114645480068FFF7ACFC00200321F9
:1009C00003460122CDE90010022140480068FFF7EC
:1009D000A1FC00200090034602464FF416510190FE
:1009E0003B480068FFF7F6FD39480068FFF72CFF29
:1009F00001231A46262137480068FFF715FD61E0FC
:100A00003548007861282CD13448007818B9012085
:100A10003249087002E00020304908702F48007801
:100A200001280FD10122114628480068FFF7B3FCC6
:100A300005222B4926480068FFF70BFF6320264953
:100A400008700EE00022012120480068FFF7A3FC97
:100A5000062224491E480068FFF7FBFE63201E495A
:100A600008701D48007862282CD11F48007818B9FA
:100A700001201D49087002E000201B4908701A4837
:100A8000007801280FD10122022110480068FFF7E9
:100A900082FC072215490E480068FFF7DAFE642041
:100AA0000D4908700EE00022022108480068FFF797
:100AB00072FC08220E4906480068FFF7CAFE64204F
:100AC000054908709CE70000080000200000002095
:100AD0001C0000200C0000204200002043000020E9
:100AE000280000202D0000204400002033000020BA
:100AF0003A00002010B591EA030F48BF83F000438D
:100B000000F1B481841A71EB030C05D2121943EB86
:100B10000C03001B61EB0C01DFF824E14FEA1154D8
:100B2000A4EB135C1EEA430F18BF9EEA445F73D028
:100B300023EA0E03DCF1200E21EA045143F4801372
:100B400032D322FA0CFE10EB0E0023FA0CFE41EB1E
:100B50000E01CCF1200E03FA0EFE10EB0E0051F147
:100B60000001B1F5801FCCF1200E32D201EB04510F
:100B700012FA0EF2BDE8104058BF7047401C38BF53
:100B80005FEA420218BF7047002814BF20F001003E
:100B900041F100014FEA410313F5001F38BF7047D0
:100BA000A1F1C04100F012B9012A43EB0302ACF1FC
:100BB000200CDCF11F0E32BF4FF0000E23FA0CF3B5
:100BC00010EB030041EB0451B4EB115FD0D0A1EB6B
:100BD000045101F5801149085FEA300001EB04512E
:100BE0000ED350F1000038BF12FA0EFE08D1BDE856
:100BF0001040C9E7401C38BF5FEA4202CAD1C3E7D0
:100C0000BDE810404FEA410313F5001F38BF70479D
:100C1000A1F1C04100F0DAB89EEA445F08D011EAC1
:100C20005E0FBDE8104004BF01F000410020704796
:100C3000BDE8104070B500F07BF800BF64FBBE3E1D
:100C40000000E0FF491058BFC1F140415B1058BFA0
:100C5000C3F140438B42EFF3008070474FEA1153DA
:100C6000A3F58063D3F11E03A8BFD3F1200C08DBEA
:100C70004FF0004242EAC12252EA505232FA03F0E7
:100C8000704709420BD4102BC4BF0020704703F5F6
:100C9000787CBCF1FF3F05D04FF0FF3070474FF03C
:100CA0000000704770B500F043F800BF49922480FF
:100CB00000207047F0E7000051EA030C17D41CF540
:100CC000801F58BFBCF5801F00F10680994218BFF5
:100CD000704708BF9042704707D711F5801F58BF73
:100CE00013F5801F19D499427047894270471CF54B
:100CF000801F08D5BCF5801FF7D58B4218BF704701
:100D000008BF824270474FF4001C1CEB410F38BFF4
:100D10001CEB430F01D28B42704770B500F008F80E
:100D2000922449004FF000514FF08053FFF78ABFE3
:100D30000EF1020E2EF0030E5EF8046B364205D45F
:100D4000012A43EB030515F5001F12D8012841EBDA
:100D5000010C1CF5001F0CD80ED14FEAD17C15F503
:100D6000001F0CEB4C0C0CF1020C08BF4CEBD37CBD
:100D700004E04FF0080C01E04FEAD37C0CEB4C058B
:100D800026FA05F606F00706B6F1040C06D20EEBBD
:100D9000860CBDE870404CF0010C6047DFE80CF0B9
:100DA000090B02024FF000414FF00000A1F50021B5
:100DB00070BD19461046012851EB010418BFD4F547
:100DC000001484BF002001F0004170BD0808A0F5A8
:100DD00000114FEA3101704753EA010C17D41CF59A
:100DE000801F58BFBCF5801F00F106808B4218BFE2
:100DF000704708BF8242704707D713F5801F58BF5E
:100E000011F5801F19D48B4270479B4270471CF527
:100E1000801F08D5BCF5801FF7D5994218BF7047D1
:100E200008BF904270474FF4001C1CEB430F38BFC3
:100E30001CEB410F01D2994270470FB40CBC03BCAC
:100E4000FFF76BBF91EA030F10B581F000413FF54A
:100E500059AE83F0004300F009B8000010B591EAE4
:100E6000030F48BF83F000433FF54CAE841A71EB8B
:100E7000030C07D212198CF0004C43EB0C03001B3F
:100E800061EB0C01DFF8A4E14FEA1154A4EB135C11
:100E90001EEA430F18BF9EEA445F00F0B08023EAC9
:100EA0006E03524221EA0451C3EB6E0338BF5B1E4E
:100EB000DCF1200E25D322FA0CFE10EB0E0043FAD3
:100EC0000CFE41EB0E01CCF1200E03FA0EFE10EBEE
:100ED0000E0051F10001CCF1200E29D412FA0EF2CD
:100EE00001EB0451BDE8104058BF7047401C1CBFC7
:100EF000B2F1004F704700280CBF491C20F00100E0
:100F0000704712EB020E43EB030218BF4FF0010EC5
:100F10004EEA4202ACF1200CDCF11E0E54D943FA29
:100F20000CFE10EB0E0051F1FF31CCF11E0ED5D5A9
:100F30000EF1010E12FA0EFE404141EB010101EBF0
:100F4000445C5FEA5C5C10D910EBDE7001EB04518D
:100F500038BFBEF1004FBDE8104018BF70470028F1
:100F60000CBF491C20F00100704730D24FEAD42C4E
:100F700011F5001124F400641BD0B1FA81F20B3A90
:100F8000A41AA41ED2F12003914030FA03F31943AE
:100F9000904001EBCC71002C01EB0451BDE81040F6
:100FA000A8BF704701F1C0414FF0000001F00041BF
:100FB0007047B0FA80F310FA03F100D110BDE41AC3
:100FC000173C4805C90AE4E701EB045110BD49107C
:100FD00001EB0451BDE810404FEA300002E04FF051
:100FE000000170474A0008BF0042F8D0B2F5001F68
:100FF00028BF704701F000414FF0000070479EEAA3
:10100000445F07D011EA5E0FBDE8104004BF002125
:1010100000207047BDE8104070B5FFF789FE00BFA3
:1010200040DFF63E83F00041104670470000E0FFCD
:1010300043004FEAD30C4FEA3C0C43401FBF40072C
:101040000CF1605113F0FE4F70471CF0006F03D19C
:1010500000200CF0004170470CF0004343EA507050
:1010600010B540EACC0000F00EF800BF000000927E
:101070004FEA0001FFF7AABE4FF000414FF0000019
:10108000A1F5002170470EF1020E2EF0030E5EF85E
:10109000044B244204D44FEA4102B2F17F4F11D8ED
:1010A0004FEA4003B3F17F4F0CD80ED14FEAD07C0A
:1010B000B2F17F4F0CEB4C0C0CF1020C08BF4CEB67
:1010C000D17C04E04FF0080C01E04FEAD17C0CEB3E
:1010D0004C0324FA03F404F00704B4F1040C06D220
:1010E0000EEB840CBDE810404CF0010C6047DFE8CB
:1010F0000CF0070802024FF00040A0F5800010BD80
:101100000846420018BFD2F1807288BF00F000404C
:1011100010BD4FF04070E1EE100A70473C1100081E
:101120000000002058000000C401000894110008CD
:101130005800002060060000E001000800000240A6
:10114000000C02400038024000E100E0004C00408A
:1011500000500040001001400044004000480040A2
:101160000014014066616E6F6E66616E6F66666C3C
:10117000696768746F6E6C696768746F6666000093
:10118000000000000000024000080240000C024085
:0411900000380240E1
:040000050800018965
:00000001FF
